{
  "_format": "hh-sol-artifact-1",
  "contractName": "ArbitrageBroker",
  "sourceName": "contracts/ArbitrageBroker.sol",
  "abi": [
    {
      "inputs": [
        {
          "internalType": "contract ICollateral",
          "name": "collateral",
          "type": "address"
        },
        {
          "internalType": "contract ISwapRouter",
          "name": "swapRouter",
          "type": "address"
        }
      ],
      "stateMutability": "nonpayable",
      "type": "constructor"
    },
    {
      "inputs": [
        {
          "internalType": "address",
          "name": "market",
          "type": "address"
        }
      ],
      "name": "InvalidMarket",
      "type": "error"
    },
    {
      "inputs": [
        {
          "internalType": "uint256",
          "name": "balanceBefore",
          "type": "uint256"
        },
        {
          "internalType": "uint256",
          "name": "balanceAfter",
          "type": "uint256"
        }
      ],
      "name": "UnprofitableTrade",
      "type": "error"
    },
    {
      "anonymous": false,
      "inputs": [
        {
          "indexed": true,
          "internalType": "address",
          "name": "market",
          "type": "address"
        },
        {
          "indexed": true,
          "internalType": "bool",
          "name": "minting",
          "type": "bool"
        },
        {
          "indexed": false,
          "internalType": "uint256",
          "name": "profits",
          "type": "uint256"
        }
      ],
      "name": "ArbitrageProfit",
      "type": "event"
    },
    {
      "anonymous": false,
      "inputs": [
        {
          "indexed": false,
          "internalType": "address",
          "name": "market",
          "type": "address"
        },
        {
          "indexed": false,
          "internalType": "bool",
          "name": "validity",
          "type": "bool"
        }
      ],
      "name": "MarketValidityChange",
      "type": "event"
    },
    {
      "anonymous": false,
      "inputs": [
        {
          "indexed": true,
          "internalType": "bytes32",
          "name": "role",
          "type": "bytes32"
        },
        {
          "indexed": true,
          "internalType": "bytes32",
          "name": "previousAdminRole",
          "type": "bytes32"
        },
        {
          "indexed": true,
          "internalType": "bytes32",
          "name": "newAdminRole",
          "type": "bytes32"
        }
      ],
      "name": "RoleAdminChanged",
      "type": "event"
    },
    {
      "anonymous": false,
      "inputs": [
        {
          "indexed": false,
          "internalType": "bytes32",
          "name": "role",
          "type": "bytes32"
        },
        {
          "indexed": false,
          "internalType": "bytes32",
          "name": "newRoleAdminNominee",
          "type": "bytes32"
        }
      ],
      "name": "RoleAdminNomineeUpdate",
      "type": "event"
    },
    {
      "anonymous": false,
      "inputs": [
        {
          "indexed": true,
          "internalType": "bytes32",
          "name": "role",
          "type": "bytes32"
        },
        {
          "indexed": true,
          "internalType": "address",
          "name": "account",
          "type": "address"
        },
        {
          "indexed": true,
          "internalType": "address",
          "name": "sender",
          "type": "address"
        }
      ],
      "name": "RoleGranted",
      "type": "event"
    },
    {
      "anonymous": false,
      "inputs": [
        {
          "indexed": false,
          "internalType": "bytes32",
          "name": "role",
          "type": "bytes32"
        },
        {
          "indexed": false,
          "internalType": "address",
          "name": "account",
          "type": "address"
        },
        {
          "indexed": false,
          "internalType": "bool",
          "name": "nominated",
          "type": "bool"
        }
      ],
      "name": "RoleNomineeUpdate",
      "type": "event"
    },
    {
      "anonymous": false,
      "inputs": [
        {
          "indexed": true,
          "internalType": "bytes32",
          "name": "role",
          "type": "bytes32"
        },
        {
          "indexed": true,
          "internalType": "address",
          "name": "account",
          "type": "address"
        },
        {
          "indexed": true,
          "internalType": "address",
          "name": "sender",
          "type": "address"
        }
      ],
      "name": "RoleRevoked",
      "type": "event"
    },
    {
      "inputs": [],
      "name": "BUY_AND_REDEEM_ROLE",
      "outputs": [
        {
          "internalType": "bytes32",
          "name": "",
          "type": "bytes32"
        }
      ],
      "stateMutability": "view",
      "type": "function"
    },
    {
      "inputs": [],
      "name": "DEFAULT_ADMIN_ROLE",
      "outputs": [
        {
          "internalType": "bytes32",
          "name": "",
          "type": "bytes32"
        }
      ],
      "stateMutability": "view",
      "type": "function"
    },
    {
      "inputs": [],
      "name": "MINT_AND_SELL_ROLE",
      "outputs": [
        {
          "internalType": "bytes32",
          "name": "",
          "type": "bytes32"
        }
      ],
      "stateMutability": "view",
      "type": "function"
    },
    {
      "inputs": [],
      "name": "POOL_FEE_TIER",
      "outputs": [
        {
          "internalType": "uint24",
          "name": "",
          "type": "uint24"
        }
      ],
      "stateMutability": "view",
      "type": "function"
    },
    {
      "inputs": [],
      "name": "SET_MARKET_VALIDITY_ROLE",
      "outputs": [
        {
          "internalType": "bytes32",
          "name": "",
          "type": "bytes32"
        }
      ],
      "stateMutability": "view",
      "type": "function"
    },
    {
      "inputs": [
        {
          "internalType": "bytes32",
          "name": "role",
          "type": "bytes32"
        }
      ],
      "name": "acceptRole",
      "outputs": [],
      "stateMutability": "nonpayable",
      "type": "function"
    },
    {
      "inputs": [
        {
          "internalType": "bytes32",
          "name": "role",
          "type": "bytes32"
        }
      ],
      "name": "acceptRoleAdmin",
      "outputs": [],
      "stateMutability": "nonpayable",
      "type": "function"
    },
    {
      "inputs": [
        {
          "internalType": "contract IPrePOMarket",
          "name": "market",
          "type": "address"
        },
        {
          "components": [
            {
              "internalType": "uint256",
              "name": "deadline",
              "type": "uint256"
            },
            {
              "internalType": "uint256",
              "name": "longShortAmount",
              "type": "uint256"
            },
            {
              "internalType": "uint256",
              "name": "collateralLimitForLong",
              "type": "uint256"
            },
            {
              "internalType": "uint256",
              "name": "collateralLimitForShort",
              "type": "uint256"
            }
          ],
          "internalType": "struct IArbitrageBroker.OffChainTradeParams",
          "name": "tradeParams",
          "type": "tuple"
        }
      ],
      "name": "buyAndRedeem",
      "outputs": [
        {
          "internalType": "uint256",
          "name": "profit",
          "type": "uint256"
        },
        {
          "internalType": "uint256",
          "name": "collateralToBuyLong",
          "type": "uint256"
        },
        {
          "internalType": "uint256",
          "name": "collateralToBuyShort",
          "type": "uint256"
        }
      ],
      "stateMutability": "nonpayable",
      "type": "function"
    },
    {
      "inputs": [],
      "name": "getCollateral",
      "outputs": [
        {
          "internalType": "contract ICollateral",
          "name": "",
          "type": "address"
        }
      ],
      "stateMutability": "view",
      "type": "function"
    },
    {
      "inputs": [
        {
          "internalType": "bytes32",
          "name": "role",
          "type": "bytes32"
        }
      ],
      "name": "getRoleAdmin",
      "outputs": [
        {
          "internalType": "bytes32",
          "name": "",
          "type": "bytes32"
        }
      ],
      "stateMutability": "view",
      "type": "function"
    },
    {
      "inputs": [
        {
          "internalType": "bytes32",
          "name": "role",
          "type": "bytes32"
        }
      ],
      "name": "getRoleAdminNominee",
      "outputs": [
        {
          "internalType": "bytes32",
          "name": "",
          "type": "bytes32"
        }
      ],
      "stateMutability": "view",
      "type": "function"
    },
    {
      "inputs": [
        {
          "internalType": "bytes32",
          "name": "role",
          "type": "bytes32"
        },
        {
          "internalType": "uint256",
          "name": "index",
          "type": "uint256"
        }
      ],
      "name": "getRoleMember",
      "outputs": [
        {
          "internalType": "address",
          "name": "",
          "type": "address"
        }
      ],
      "stateMutability": "view",
      "type": "function"
    },
    {
      "inputs": [
        {
          "internalType": "bytes32",
          "name": "role",
          "type": "bytes32"
        }
      ],
      "name": "getRoleMemberCount",
      "outputs": [
        {
          "internalType": "uint256",
          "name": "",
          "type": "uint256"
        }
      ],
      "stateMutability": "view",
      "type": "function"
    },
    {
      "inputs": [],
      "name": "getSwapRouter",
      "outputs": [
        {
          "internalType": "contract ISwapRouter",
          "name": "",
          "type": "address"
        }
      ],
      "stateMutability": "view",
      "type": "function"
    },
    {
      "inputs": [
        {
          "internalType": "bytes32",
          "name": "role",
          "type": "bytes32"
        },
        {
          "internalType": "address",
          "name": "account",
          "type": "address"
        }
      ],
      "name": "grantRole",
      "outputs": [],
      "stateMutability": "nonpayable",
      "type": "function"
    },
    {
      "inputs": [
        {
          "internalType": "bytes32",
          "name": "role",
          "type": "bytes32"
        },
        {
          "internalType": "address",
          "name": "account",
          "type": "address"
        }
      ],
      "name": "hasRole",
      "outputs": [
        {
          "internalType": "bool",
          "name": "",
          "type": "bool"
        }
      ],
      "stateMutability": "view",
      "type": "function"
    },
    {
      "inputs": [
        {
          "internalType": "address",
          "name": "market",
          "type": "address"
        }
      ],
      "name": "isMarketValid",
      "outputs": [
        {
          "internalType": "bool",
          "name": "",
          "type": "bool"
        }
      ],
      "stateMutability": "view",
      "type": "function"
    },
    {
      "inputs": [
        {
          "internalType": "bytes32",
          "name": "role",
          "type": "bytes32"
        },
        {
          "internalType": "address",
          "name": "account",
          "type": "address"
        }
      ],
      "name": "isNominated",
      "outputs": [
        {
          "internalType": "bool",
          "name": "",
          "type": "bool"
        }
      ],
      "stateMutability": "view",
      "type": "function"
    },
    {
      "inputs": [
        {
          "internalType": "contract IPrePOMarket",
          "name": "market",
          "type": "address"
        },
        {
          "components": [
            {
              "internalType": "uint256",
              "name": "deadline",
              "type": "uint256"
            },
            {
              "internalType": "uint256",
              "name": "longShortAmount",
              "type": "uint256"
            },
            {
              "internalType": "uint256",
              "name": "collateralLimitForLong",
              "type": "uint256"
            },
            {
              "internalType": "uint256",
              "name": "collateralLimitForShort",
              "type": "uint256"
            }
          ],
          "internalType": "struct IArbitrageBroker.OffChainTradeParams",
          "name": "tradeParams",
          "type": "tuple"
        }
      ],
      "name": "mintAndSell",
      "outputs": [
        {
          "internalType": "uint256",
          "name": "profit",
          "type": "uint256"
        },
        {
          "internalType": "uint256",
          "name": "collateralFromSellingLong",
          "type": "uint256"
        },
        {
          "internalType": "uint256",
          "name": "collateralFromSellingShort",
          "type": "uint256"
        }
      ],
      "stateMutability": "nonpayable",
      "type": "function"
    },
    {
      "inputs": [
        {
          "internalType": "bytes32",
          "name": "role",
          "type": "bytes32"
        },
        {
          "internalType": "address",
          "name": "account",
          "type": "address"
        }
      ],
      "name": "renounceRole",
      "outputs": [],
      "stateMutability": "nonpayable",
      "type": "function"
    },
    {
      "inputs": [
        {
          "internalType": "bytes32",
          "name": "role",
          "type": "bytes32"
        },
        {
          "internalType": "address",
          "name": "account",
          "type": "address"
        }
      ],
      "name": "revokeNomination",
      "outputs": [],
      "stateMutability": "nonpayable",
      "type": "function"
    },
    {
      "inputs": [
        {
          "internalType": "bytes32",
          "name": "role",
          "type": "bytes32"
        },
        {
          "internalType": "address",
          "name": "account",
          "type": "address"
        }
      ],
      "name": "revokeRole",
      "outputs": [],
      "stateMutability": "nonpayable",
      "type": "function"
    },
    {
      "inputs": [
        {
          "internalType": "address",
          "name": "market",
          "type": "address"
        },
        {
          "internalType": "bool",
          "name": "validity",
          "type": "bool"
        }
      ],
      "name": "setMarketValidity",
      "outputs": [],
      "stateMutability": "nonpayable",
      "type": "function"
    },
    {
      "inputs": [
        {
          "internalType": "bytes32",
          "name": "role",
          "type": "bytes32"
        },
        {
          "internalType": "bytes32",
          "name": "roleAdminNominee",
          "type": "bytes32"
        }
      ],
      "name": "setRoleAdminNominee",
      "outputs": [],
      "stateMutability": "nonpayable",
      "type": "function"
    },
    {
      "inputs": [
        {
          "internalType": "bytes4",
          "name": "interfaceId",
          "type": "bytes4"
        }
      ],
      "name": "supportsInterface",
      "outputs": [
        {
          "internalType": "bool",
          "name": "",
          "type": "bool"
        }
      ],
      "stateMutability": "view",
      "type": "function"
    }
  ],
  "bytecode": "0x6101206040527ff74caf1758a1dce6792a2a8b64307ea26b57067ae0a7f5993ae8be21989f904d60c0527fc1fafbf7855b9b105fc245805792745d79626a7eba821012f84c227e0166046160e0527f58d4e3eeefd3a0c7d033fd50c4a863e048c73869c64b657db789075ef90a7622610100523480156200007f57600080fd5b506040516200240438038062002404833981016040819052620000a291620002e9565b620000af60003362000159565b6001600160601b0319606083811b821660805282901b1660a05260405163095ea7b360e01b81526001600160a01b038083166004830152600019602483015283169063095ea7b390604401602060405180830381600087803b1580156200011557600080fd5b505af11580156200012a573d6000803e3d6000fd5b505050506040513d601f19601f82011682018060405250810190620001509190620002be565b50505062000341565b62000165828262000169565b5050565b620001808282620001ac60201b620013fa1760201c565b6000828152600160209081526040909120620001a79183906200147e6200024c821b17901c565b505050565b6000828152602081815260408083206001600160a01b038516845290915290205460ff1662000165576000828152602081815260408083206001600160a01b03851684529091529020805460ff19166001179055620002083390565b6001600160a01b0316816001600160a01b0316837f2f8788117e7eff1d82e926ec794901d17c78024a50270940304540a733656f0d60405160405180910390a45050565b600062000263836001600160a01b0384166200026c565b90505b92915050565b6000818152600183016020526040812054620002b55750815460018181018455600084815260208082209093018490558454848252828601909352604090209190915562000266565b50600062000266565b600060208284031215620002d157600080fd5b81518015158114620002e257600080fd5b9392505050565b60008060408385031215620002fd57600080fd5b82516200030a8162000328565b60208401519092506200031d8162000328565b809150509250929050565b6001600160a01b03811681146200033e57600080fd5b50565b60805160601c60a05160601c60c05160e05161010051612016620003ee600039600081816103c0015261049101526000818161030701526111010152600081816102340152610d7601526000818161033e015281816104f0015281816116d8015261180d015260008181610291015281816105ff015281816108b301528181610dfb01528181610ff701528181611186015281816113a60152818161166d01526117a701526120166000f3fe608060405234801561001057600080fd5b50600436106101735760003560e01c80636acfd673116100de5780639272693211610097578063ca15c87311610071578063ca15c87314610418578063cd0c1d961461042b578063cda737001461043e578063d547741f1461045157600080fd5b806392726932146103bb5780639e1e5fa5146103e2578063a217fddf1461041057600080fd5b80636acfd67314610329578063725c9c491461033c57806380db4329146103625780638bb06b0b146103825780639010d07c1461039557806391d14854146103a857600080fd5b80632f2ff15d116101305780632f2ff15d1461025657806336568abe1461026957806336fc17871461027c5780635c1548fb1461028f5780635c449f7c146102c95780635f8eb8351461030257600080fd5b8063011a35281461017857806301ffc9a71461019a5780631c8c2389146101bd5780631f339ca2146101e9578063248a9ca3146101fe57806324be11aa1461022f575b600080fd5b61018161271081565b60405162ffffff90911681526020015b60405180910390f35b6101ad6101a8366004611d04565b610464565b6040519015158152602001610191565b6101ad6101cb366004611c31565b6001600160a01b031660009081526004602052604090205460ff1690565b6101fc6101f7366004611c4e565b61048f565b005b61022161020c366004611ca4565b60009081526020819052604090206001015490565b604051908152602001610191565b6102217f000000000000000000000000000000000000000000000000000000000000000081565b6101fc610264366004611cbd565b610b92565b6101fc610277366004611cbd565b610bbe565b6101fc61028a366004611ca4565b610c41565b7f00000000000000000000000000000000000000000000000000000000000000005b6040516001600160a01b039091168152602001610191565b6101ad6102d7366004611cbd565b60009182526003602090815260408084206001600160a01b0393909316845291905290205460ff1690565b6102217f000000000000000000000000000000000000000000000000000000000000000081565b6101fc610337366004611cbd565b610cc3565b7f00000000000000000000000000000000000000000000000000000000000000006102b1565b610221610370366004611ca4565b60009081526002602052604090205490565b6101fc610390366004611ca4565b610cea565b6102b16103a3366004611ce2565b610d27565b6101ad6103b6366004611cbd565b610d46565b6102217f000000000000000000000000000000000000000000000000000000000000000081565b6103f56103f0366004611d4b565b610d6f565b60408051938452602084019290925290820152606001610191565b610221600081565b610221610426366004611ca4565b6110be565b6101fc610439366004611ce2565b6110d5565b6103f561044c366004611d4b565b6110fa565b6101fc61045f366004611cbd565b6113d5565b60006001600160e01b03198216635a05180f60e01b1480610489575061048982611493565b92915050565b7f00000000000000000000000000000000000000000000000000000000000000006104b9816114c8565b6001600160a01b0383166000818152600460208181526040808420805460ff191688151517905580516309e3efb360e11b815290517f000000000000000000000000000000000000000000000000000000000000000095936313c7df66938382019390929190829003018186803b15801561053357600080fd5b505afa158015610547573d6000803e3d6000fd5b505050506040513d601f19601f8201168201806040525081019061056b9190611d2e565b90506000856001600160a01b0316637a71e6846040518163ffffffff1660e01b815260040160206040518083038186803b1580156105a857600080fd5b505afa1580156105bc573d6000803e3d6000fd5b505050506040513d601f19601f820116820180604052508101906105e09190611d2e565b9050841561089c5760405163095ea7b360e01b81526001600160a01b037f0000000000000000000000000000000000000000000000000000000000000000169063095ea7b39061063890899060001990600401611e1a565b602060405180830381600087803b15801561065257600080fd5b505af1158015610666573d6000803e3d6000fd5b505050506040513d601f19601f8201168201806040525081019061068a9190611c87565b5060405163095ea7b360e01b81526001600160a01b0383169063095ea7b3906106bb90899060001990600401611e1a565b602060405180830381600087803b1580156106d557600080fd5b505af11580156106e9573d6000803e3d6000fd5b505050506040513d601f19601f8201168201806040525081019061070d9190611c87565b5060405163095ea7b360e01b81526001600160a01b0382169063095ea7b39061073e90899060001990600401611e1a565b602060405180830381600087803b15801561075857600080fd5b505af115801561076c573d6000803e3d6000fd5b505050506040513d601f19601f820116820180604052508101906107909190611c87565b5060405163095ea7b360e01b81526001600160a01b0383169063095ea7b3906107c190869060001990600401611e1a565b602060405180830381600087803b1580156107db57600080fd5b505af11580156107ef573d6000803e3d6000fd5b505050506040513d601f19601f820116820180604052508101906108139190611c87565b5060405163095ea7b360e01b81526001600160a01b0382169063095ea7b39061084490869060001990600401611e1a565b602060405180830381600087803b15801561085e57600080fd5b505af1158015610872573d6000803e3d6000fd5b505050506040513d601f19601f820116820180604052508101906108969190611c87565b50610b47565b60405163095ea7b360e01b81526001600160a01b037f0000000000000000000000000000000000000000000000000000000000000000169063095ea7b3906108eb908990600090600401611e1a565b602060405180830381600087803b15801561090557600080fd5b505af1158015610919573d6000803e3d6000fd5b505050506040513d601f19601f8201168201806040525081019061093d9190611c87565b5060405163095ea7b360e01b81526001600160a01b0383169063095ea7b39061096d908990600090600401611e1a565b602060405180830381600087803b15801561098757600080fd5b505af115801561099b573d6000803e3d6000fd5b505050506040513d601f19601f820116820180604052508101906109bf9190611c87565b5060405163095ea7b360e01b81526001600160a01b0382169063095ea7b3906109ef908990600090600401611e1a565b602060405180830381600087803b158015610a0957600080fd5b505af1158015610a1d573d6000803e3d6000fd5b505050506040513d601f19601f82011682018060405250810190610a419190611c87565b5060405163095ea7b360e01b81526001600160a01b0383169063095ea7b390610a71908690600090600401611e1a565b602060405180830381600087803b158015610a8b57600080fd5b505af1158015610a9f573d6000803e3d6000fd5b505050506040513d601f19601f82011682018060405250810190610ac39190611c87565b5060405163095ea7b360e01b81526001600160a01b0382169063095ea7b390610af3908690600090600401611e1a565b602060405180830381600087803b158015610b0d57600080fd5b505af1158015610b21573d6000803e3d6000fd5b505050506040513d601f19601f82011682018060405250810190610b459190611c87565b505b604080516001600160a01b038816815286151560208201527f2dd41f3d77cb3bb0e4a051922338f91b8f440e2cf2e7f9835a914a2843cd6cdb910160405180910390a1505050505050565b600082815260208190526040902060010154610bad816114c8565b610bb9838360016114d2565b505050565b6001600160a01b0381163314610c335760405162461bcd60e51b815260206004820152602f60248201527f416363657373436f6e74726f6c3a2063616e206f6e6c792072656e6f756e636560448201526e103937b632b9903337b91039b2b63360891b60648201526084015b60405180910390fd5b610c3d828261154a565b5050565b600081815260036020908152604080832033845290915290205460ff16610caa5760405162461bcd60e51b815260206004820152601a60248201527f6d73672e73656e64657220213d20726f6c65206e6f6d696e65650000000000006044820152606401610c2a565b610cb6813360006114d2565b610cc0813361156c565b50565b600082815260208190526040902060010154610cde816114c8565b610bb9838360006114d2565b600081815260026020526040902054610d02816114c8565b600082815260026020526040902054610d1c90839061158e565b610c3d8260006115d9565b6000828152600160205260408120610d3f9083611634565b9392505050565b6000918252602082815260408084206001600160a01b0393909316845291905290205460ff1690565b60008060007f0000000000000000000000000000000000000000000000000000000000000000610d9e816114c8565b6001600160a01b038616600090815260046020526040902054869060ff16610de357604051623aae9360e61b81526001600160a01b0382166004820152602401610c2a565b6040516370a0823160e01b81523060048201526000907f00000000000000000000000000000000000000000000000000000000000000006001600160a01b0316906370a082319060240160206040518083038186803b158015610e4557600080fd5b505afa158015610e59573d6000803e3d6000fd5b505050506040513d601f19601f82011682018060405250810190610e7d9190611d8c565b9050610efb87896001600160a01b03166313c7df666040518163ffffffff1660e01b815260040160206040518083038186803b158015610ebc57600080fd5b505afa158015610ed0573d6000803e3d6000fd5b505050506040513d601f19601f82011682018060405250810190610ef49190611d2e565b6001611640565b9450610f7987896001600160a01b0316637a71e6846040518163ffffffff1660e01b815260040160206040518083038186803b158015610f3a57600080fd5b505afa158015610f4e573d6000803e3d6000fd5b505050506040513d601f19601f82011682018060405250810190610f729190611d2e565b6000611640565b604051637cbc237360e01b815260208901356004820181905260248201529094506001600160a01b03891690637cbc237390604401600060405180830381600087803b158015610fc857600080fd5b505af1158015610fdc573d6000803e3d6000fd5b50506040516370a0823160e01b8152306004820152600092507f00000000000000000000000000000000000000000000000000000000000000006001600160a01b031691506370a08231906024015b60206040518083038186803b15801561104357600080fd5b505afa158015611057573d6000803e3d6000fd5b505050506040513d601f19601f8201168201806040525081019061107b9190611d8c565b90508082106110a7576040516318c5ce7560e01b81526004810183905260248101829052604401610c2a565b6110b18282611f07565b9650505050509250925092565b60008181526001602052604081206104899061176b565b6000828152602081905260409020600101546110f0816114c8565b610bb983836115d9565b60008060007f0000000000000000000000000000000000000000000000000000000000000000611129816114c8565b6001600160a01b038616600090815260046020526040902054869060ff1661116e57604051623aae9360e61b81526001600160a01b0382166004820152602401610c2a565b6040516370a0823160e01b81523060048201526000907f00000000000000000000000000000000000000000000000000000000000000006001600160a01b0316906370a082319060240160206040518083038186803b1580156111d057600080fd5b505afa1580156111e4573d6000803e3d6000fd5b505050506040513d601f19601f820116820180604052508101906112089190611d8c565b60405163140e25ad60e31b8152602089013560048201529091506001600160a01b0389169063a0712d6890602401602060405180830381600087803b15801561125057600080fd5b505af1158015611264573d6000803e3d6000fd5b505050506040513d601f19601f820116820180604052508101906112889190611d8c565b5061130587896001600160a01b03166313c7df666040518163ffffffff1660e01b815260040160206040518083038186803b1580156112c657600080fd5b505afa1580156112da573d6000803e3d6000fd5b505050506040513d601f19601f820116820180604052508101906112fe9190611d2e565b6001611775565b945061138387896001600160a01b0316637a71e6846040518163ffffffff1660e01b815260040160206040518083038186803b15801561134457600080fd5b505afa158015611358573d6000803e3d6000fd5b505050506040513d601f19601f8201168201806040525081019061137c9190611d2e565b6000611775565b6040516370a0823160e01b81523060048201529094506000906001600160a01b037f000000000000000000000000000000000000000000000000000000000000000016906370a082319060240161102b565b6000828152602081905260409020600101546113f0816114c8565b610bb9838361154a565b6114048282610d46565b610c3d576000828152602081815260408083206001600160a01b03851684529091529020805460ff1916600117905561143a3390565b6001600160a01b0316816001600160a01b0316837f2f8788117e7eff1d82e926ec794901d17c78024a50270940304540a733656f0d60405160405180910390a45050565b6000610d3f836001600160a01b038416611844565b60006001600160e01b03198216637965db0b60e01b148061048957506301ffc9a760e01b6001600160e01b0319831614610489565b610cc08133611893565b60008381526003602090815260408083206001600160a01b03861680855290835292819020805460ff19168515159081179091558151878152928301939093528101919091527fd4eaea07a6439b4db5273291dd4d77f204d9eaf0d67149318c911f449f3df5d69060600160405180910390a1505050565b61155482826118ec565b6000828152600160205260409020610bb99082611951565b61157682826113fa565b6000828152600160205260409020610bb9908261147e565b600082815260208190526040808220600101805490849055905190918391839186917fbd79b86ffe0ab8e8776151514217cd7cacd52c909f66475c3af44e129f0b00ff9190a4505050565b6000828152600260209081526040918290205482519081529081018390527fb7f84e320be67bd09b884f0142b70ae1256025837c61650411a58567f9137c5d910160405180910390a160009182526002602052604090912055565b6000610d3f8383611966565b60008082611652578460600135611658565b84604001355b60408051610100810182526001600160a01b037f000000000000000000000000000000000000000000000000000000000000000081168252878116602080840191909152612710838501523060608401528935608084015289013560a083015260c08201849052600060e08301529151631b67c43360e31b8152929350917f00000000000000000000000000000000000000000000000000000000000000009091169063db3e21989061170f908490600401611e66565b602060405180830381600087803b15801561172957600080fd5b505af115801561173d573d6000803e3d6000fd5b505050506040513d601f19601f820116820180604052508101906117619190611d8c565b9695505050505050565b6000610489825490565b6000808261178757846060013561178d565b84604001355b60408051610100810182526001600160a01b0380881682527f00000000000000000000000000000000000000000000000000000000000000008116602080840191909152612710838501523060608401528935608084015289013560a083015260c08201849052600060e0830152915163414bf38960e01b8152929350917f00000000000000000000000000000000000000000000000000000000000000009091169063414bf3899061170f908490600401611e66565b600081815260018301602052604081205461188b57508154600181810184556000848152602080822090930184905584548482528286019093526040902091909155610489565b506000610489565b61189d8282610d46565b610c3d576118aa81611990565b6118b58360206119a2565b6040516020016118c6929190611da5565b60408051601f198184030181529082905262461bcd60e51b8252610c2a91600401611e33565b6118f68282610d46565b15610c3d576000828152602081815260408083206001600160a01b0385168085529252808320805460ff1916905551339285917ff6391f5c32d9c69d2a47ea670b442974b53935d1edc7fd64eb21e047a839171b9190a45050565b6000610d3f836001600160a01b038416611b3e565b600082600001828154811061197d5761197d611f91565b9060005260206000200154905092915050565b60606104896001600160a01b03831660145b606060006119b1836002611ee8565b6119bc906002611ed0565b67ffffffffffffffff8111156119d4576119d4611fa7565b6040519080825280601f01601f1916602001820160405280156119fe576020820181803683370190505b509050600360fc1b81600081518110611a1957611a19611f91565b60200101906001600160f81b031916908160001a905350600f60fb1b81600181518110611a4857611a48611f91565b60200101906001600160f81b031916908160001a9053506000611a6c846002611ee8565b611a77906001611ed0565b90505b6001811115611aef576f181899199a1a9b1b9c1cb0b131b232b360811b85600f1660108110611aab57611aab611f91565b1a60f81b828281518110611ac157611ac1611f91565b60200101906001600160f81b031916908160001a90535060049490941c93611ae881611f4e565b9050611a7a565b508315610d3f5760405162461bcd60e51b815260206004820181905260248201527f537472696e67733a20686578206c656e67746820696e73756666696369656e746044820152606401610c2a565b60008181526001830160205260408120548015611c27576000611b62600183611f07565b8554909150600090611b7690600190611f07565b9050818114611bdb576000866000018281548110611b9657611b96611f91565b9060005260206000200154905080876000018481548110611bb957611bb9611f91565b6000918252602080832090910192909255918252600188019052604090208390555b8554869080611bec57611bec611f7b565b600190038181906000526020600020016000905590558560010160008681526020019081526020016000206000905560019350505050610489565b6000915050610489565b600060208284031215611c4357600080fd5b8135610d3f81611fbd565b60008060408385031215611c6157600080fd5b8235611c6c81611fbd565b91506020830135611c7c81611fd2565b809150509250929050565b600060208284031215611c9957600080fd5b8151610d3f81611fd2565b600060208284031215611cb657600080fd5b5035919050565b60008060408385031215611cd057600080fd5b823591506020830135611c7c81611fbd565b60008060408385031215611cf557600080fd5b50508035926020909101359150565b600060208284031215611d1657600080fd5b81356001600160e01b031981168114610d3f57600080fd5b600060208284031215611d4057600080fd5b8151610d3f81611fbd565b60008082840360a0811215611d5f57600080fd5b8335611d6a81611fbd565b92506080601f1982011215611d7e57600080fd5b506020830190509250929050565b600060208284031215611d9e57600080fd5b5051919050565b7f416363657373436f6e74726f6c3a206163636f756e7420000000000000000000815260008351611ddd816017850160208801611f1e565b7001034b99036b4b9b9b4b733903937b6329607d1b6017918401918201528351611e0e816028840160208801611f1e565b01602801949350505050565b6001600160a01b03929092168252602082015260400190565b6020815260008251806020840152611e52816040850160208701611f1e565b601f01601f19169190910160400192915050565b6101008101610489828480516001600160a01b03908116835260208083015182169084015260408083015162ffffff16908401526060808301518216908401526080808301519084015260a0828101519084015260c0808301519084015260e09182015116910152565b60008219821115611ee357611ee3611f65565b500190565b6000816000190483118215151615611f0257611f02611f65565b500290565b600082821015611f1957611f19611f65565b500390565b60005b83811015611f39578181015183820152602001611f21565b83811115611f48576000848401525b50505050565b600081611f5d57611f5d611f65565b506000190190565b634e487b7160e01b600052601160045260246000fd5b634e487b7160e01b600052603160045260246000fd5b634e487b7160e01b600052603260045260246000fd5b634e487b7160e01b600052604160045260246000fd5b6001600160a01b0381168114610cc057600080fd5b8015158114610cc057600080fdfea2646970667358221220494748377b6d8862b85a8904b951a66bc6acde0cc0e7af8369c4e18b120e8f3d64736f6c63430008070033",
  "linkReferences": {},
  "deployedLinkReferences": {}
}